:020000040000FA
:100000000C94B2000C94DA000C94DA000C94DA0030
:100010000C94DA000C94DA000C94DA000C94DA00F8
:100020000C94DA000C94DA000C94DA000C94DA00E8
:100030000C94DA000C94DA000C94DA000C94DA00D8
:100040000C94CD030C94DA000C949B030C94750370
:100050000C94DA000C94DA000C94DA000C94DA00B8
:100060000C94DA000C94DA0000407A10F35A00A0E5
:10007000724E18090010A5D4E80000E87648170071
:1000800000E40B54020000CA9A3B000000E1F505B1
:10009000000080969800000040420F000000A086FB
:1000A00001000000102700000000E803000000002D
:1000B0006400000000000A000000000001000000D1
:1000C00000002C76D888DC674F0823DFC1DFAE59EB
:1000D000E1B1B796E5E3E453C63AE651997696E87E
:1000E000E6C28426EB898C9B62ED407C6FFCEFBC02
:1000F0009C9F40F2BAA56FA5F490055A2AF75C932D
:100100006B6CF9676DC11BFCE0E40D47FEF520E662
:10011000B500D0ED902E0300943577050080841E45
:10012000080000204E0A000000C80C333333330FA0
:10013000986E12831141EF8D2114893BE65516CF3D
:10014000FEE6DB18D1844B381BF77C1D901DA4BB49
:10015000E424203284725E228100C9F124ECA1E5FE
:100160003D278B0811241FBECFEFD8E0DEBFCDBFE7
:1001700022E0A2E5B1E001C01D92AC33B207E1F785
:1001800011E0A0E0B1E0E2E4FFE102C005900D92D1
:10019000A235B107D9F710E0C2EBD0E004C0219737
:1001A000FE010E94A70DC13BD107C9F70E941704A9
:1001B0000C949F0F0C940000AF92BF92CF92DF92ED
:1001C000EF92FF920F931F93CF93DF936C017B010C
:1001D0008B01040F151FEB015E01AE18BF08C0179D
:1001E000D10759F06991D601ED91FC910190F08110
:1001F000E02DC6010995892B79F7C501DF91CF91D3
:100200001F910F91FF90EF90DF90CF90BF90AF9034
:100210000895FC0144815581608171818BE991E0F1
:100220000C94DC00FC01538D448D252F30E0842F8D
:1002300090E0821B930B541710F0CF96089501970E
:100240000895FC01918D828D981761F0A28DAE0FFB
:10025000BF2FB11D5D968C91928D9F5F9F73928F82
:1002600090E008958FEF9FEF0895FC01918D828DAE
:10027000981731F0828DE80FF11D858D90E008957B
:100280008FEF9FEF0895FC01918D228D892F90E0D3
:10029000805C9F4F821B91098F73992708958BE98A
:1002A00091E00E94430121E0892B09F420E0822F94
:1002B000089580E090E0892B29F00E944F01811180
:1002C0000C9400000895FC01A48DA80FB92FB11D56
:1002D000A35ABF4F2C91848D90E001968F7399277C
:1002E000848FA689B7892C93A089B1898C9183705A
:1002F00080648C93938D848D981306C00288F38953
:10030000E02D80818F7D80830895EF92FF920F937F
:100310001F93CF93DF93EC0181E0888F9B8D8C8DB1
:1003200098131AC0E889F989808185FF15C09FB7A5
:10033000F894EE89FF896083E889F9898081837068
:10034000806480839FBF81E090E0DF91CF911F9117
:100350000F91FF90EF900895F62E0B8D10E00F5F38
:100360001F4F0F731127E02E8C8D8E110CC00FB60E
:1003700007FCFACFE889F989808185FFF5CFCE01A6
:100380000E946301F1CFEB8DEC0FFD2FF11DE35ABD
:10039000FF4FF0829FB7F8940B8FEA89FB89808129
:1003A0008062CFCFCF93DF93EC01888D8823B9F0A3
:1003B000AA89BB89E889F9898C9185FD03C0808170
:1003C00086FD0DC00FB607FCF7CF8C9185FFF2CFED
:1003D000808185FFEDCFCE010E946301E9CFDF91DF
:1003E000CF9108953FB7F8948091570190915801AB
:1003F000A0915901B0915A0126B5A89B05C02F3F85
:1004000019F00196A11DB11D3FBFBA2FA92F982F3A
:100410008827BC01CD01620F711D811D911D42E035
:10042000660F771F881F991F4A95D1F708958F92FD
:100430009F92AF92BF92CF92DF92EF92FF924B01C9
:100440005C010E94F2016B017C010E94F2016C19B7
:100450007D098E099F09683E734081059105A8F3C7
:1004600021E0821A9108A108B10888EEC80E83E045
:10047000D81EE11CF11C81149104A104B10429F7D8
:10048000FF90EF90DF90CF90BF90AF909F908F90B4
:100490000895FC0101900020E9F73197AF01481B56
:1004A000590BBC018BE991E00C94DC00CF93DF93F6
:1004B0000E940901EC0184E291E00E9449028C0F44
:1004C0009D1FDF91CF9108950F931F93CF93DF93DB
:1004D000EC0188819981009759F02A813B81261788
:1004E000370730F081E0DF91CF911F910F91089590
:1004F0008B016F5F7F4F0E94D20E009759F0998356
:1005000088831B830A832C813D81232B59F7FC01AF
:100510001082E8CF80E0E7CFCF93DF93EC018881B2
:100520009981009711F00E94490E198218821D824C
:100530001C821B821A82DF91CF9108950F931F9323
:10054000CF93DF93EC010C811D810B5F1F4FB8012E
:100550000E946402882391F0288139818C819D81D9
:1005600067E271E0820F931F0E94980F1D830C8336
:10057000CE01DF91CF911F910F910895CE010E947E
:100580008C02F6CFEF92FF920F931F93CF93DF93DE
:100590008C017B01EB0109900020E9F72197C61B34
:1005A000D70BBE010E946402811109C0C801DF910E
:1005B000CF911F910F91FF90EF900C948C02F80156
:1005C000D583C483B70180819181DF91CF911F9141
:1005D0000F91FF90EF900C94980FEF92FF920F9372
:1005E0001F93CF93DF93EC01FB01E080F180E114D6
:1005F000F10411F10481158101151105A9F08C8117
:100600009D81080F191FB801CE010E946402882342
:1006100099F0288139818C819D81B701820F931FC8
:100620000E94980F1D830C83CE01DF91CF911F9103
:100630000F91FF90EF900895CE010E948C02F4CFAD
:10064000FC0180819181009711F00C94490E08956E
:10065000CF92DF92EF92FF920F931F93CF93DF938E
:10066000CDB7DEB7A1970FB6F894DEBF0FBECDBFF2
:100670007C01CB01BA01F701118210821382128230
:100680001582148242E0420F8E010F5F1F4F0E94BD
:10069000B8086C01009771F0FC0101900020E9F7A7
:1006A00031978F01081B190BB801C7010E94640222
:1006B000811112C0C7010E948C02A1960FB6F89456
:1006C000DEBF0FBECDBFDF91CF911F910F91FF9085
:1006D000EF90DF90CF900895F70115830483B60162
:1006E000808191810E94980FE8CF1F920F920FB6E0
:1006F0000F9211242F933F934F935F936F937F93A8
:100700008F939F93AF93BF93EF93FF938BE991E008
:100710000E946301FF91EF91BF91AF919F918F91E3
:100720007F916F915F914F913F912F910F900FBEED
:100730000F901F9018951F920F920FB60F921124D1
:100740002F938F939F93EF93FF93E091AB01F091E1
:10075000AC018081E091B101F091B20182FD1BC03A
:1007600090818091B4018F5F8F732091B5018217C2
:1007700041F0E091B401F0E0E556FE4F958F809393
:10078000B401FF91EF919F918F912F910F900FBE28
:100790000F901F9018958081F4CF1F920F920FB683
:1007A0000F9211242F933F938F939F93AF93BF93F7
:1007B0008091530190915401A0915501B09156013F
:1007C0003091520123E0230F2D3758F50196A11DDA
:1007D000B11D209352018093530190935401A09333
:1007E0005501B09356018091570190915801A09105
:1007F0005901B0915A010196A11DB11D8093570175
:1008000090935801A0935901B0935A01BF91AF91B1
:100810009F918F913F912F910F900FBE0F901F903E
:10082000189526E8230F0296A11DB11DD2CFCF93B4
:10083000DF93CDB7DEB7C954D1090FB6F894DEBF48
:100840000FBECDBF789484B5826084BD84B58160CD
:1008500084BD85B5826085BD85B5816085BD80918B
:100860006E00816080936E00109281008091810003
:1008700082608093810080918100816080938100FB
:10088000809180008160809380008091B1008460BD
:100890008093B1008091B00081608093B00080911E
:1008A0007A00846080937A0080917A0082608093DD
:1008B0007A0080917A00816080937A0080917A003A
:1008C000806880937A001092C100E091AB01F091B2
:1008D000AC0182E08083E091A701F091A801108231
:1008E000E091A901F091AA018FEC80831092B301ED
:1008F000E091AF01F091B00186E08083E091AD011D
:10090000F091AE01808180618083E091AD01F09132
:10091000AE01808188608083E091AD01F091AE01ED
:10092000808180688083E091AD01F091AE0180818B
:100930008F7D808360ED77E080E090E00E94170279
:100940002091000128A7309101013CA7809102016C
:1009500088AB909103019CAB20900401309005017D
:100960000091060110910701C0900801D090090183
:10097000E0900A01F0900B01A701960168A57CA503
:100980000E94730B0E94520D5B014C019101A80162
:1009900068A57CA588A99CA90E94D50C2B013C01C7
:1009A000A7019601B101C8010E94D50C9B01AC01C1
:1009B000C301B2010E940D0B181614F01501840139
:1009C00028A53CA548A95CA960E070E088EC92E409
:1009D0000E94D50C26966CAF7DAF8EAF9FAF269749
:1009E000A7019601B101C8010E94D50C6AAF7BAF87
:1009F0008CAF9DAF9101A80168A57CA588A99CA991
:100A00000E94D50C2AAD3BAD4CAD5DAD0E94690C8A
:100A10002A966CAF7DAF8EAF9FAF2A979101A80148
:100A2000B101C8010E94730B6EAB7FAB88AF99AF69
:100A30009B01AC010E94730B2B013C0120E030E0D4
:100A400048EC52E4B101C8010E94730BA701960162
:100A50000E94730B4B015C01B7FAB094B7F8B094E5
:100A600020E030E040E850E4C701B6010E94730B7B
:100A70009B01AC01C501B4010E94730B9B01AC0149
:100A8000C301B2010E94680C0E94520D2B013C016F
:100A9000A7019601C701B6010E94690C4B015C01D8
:100AA0002EA93FA948AD59ADC301B2010E94680CFF
:100AB000A50194010E94D50C6EAF7FAF21968FAF38
:100AC000219722969FAF22976EA97FA988AD99ADF5
:100AD0009058A30192010E94680CA50194010E9404
:100AE000D50C5B014C019B01AC016EAD7FAD219635
:100AF0008FAD219722969FAD22970E94470D181621
:100B000044F4AEACBFAC21968FAC219722969FAC3B
:100B10002297C701B6010E94520D9B01AC01B101A1
:100B2000C8010E940D0B87FF06C0A12CB12C30E834
:100B3000832E4FE3942E2A962CAD3DAD4EAD5FAD86
:100B40002A9726966CAD7DAD8EAD9FAD26970E94FF
:100B50000D0B87FF04C0A8A6BCA688AA9CAAA70163
:100B6000960168A57CA588A99CA90E94730B0E9488
:100B7000520D7B016C019101A80168A57CA588A993
:100B80009CA90E94D50C9B01AC016AAD7BAD8CADDC
:100B90009DAD0E94470D87FD02C01701860188A503
:100BA0009CA5A8A9BCA98093000190930101A093E2
:100BB0000201B0930301C101D80180930401909315
:100BC0000501A0930601B093070124E048A55CA5A8
:100BD00068A97CA9CE0101960E9428031BA21AA233
:100BE0001DA21CA21FA21EA26DE271E0CE01829680
:100BF0000E94C202BE016F5F7F4FCE0182960E94AB
:100C0000ED020E945602CE0182960E942003CE0180
:100C100001960E94200387E391E00E9449024091DF
:100C2000040150910501609106017091070124E0D3
:100C3000CE0101960E942803CE0101960E94560221
:100C4000CE0101960E94200383E491E00E944902B4
:100C5000409108015091090160910A0170910B01C6
:100C600024E0CE0101960E942803CE0101960E9445
:100C70005602CE0101960E942003809000019090C0
:100C80000101A0900201B0900301C0900401D09036
:100C90000501E0900601F0900701209108013091D4
:100CA000090140910A0150910B01C701B6010E9450
:100CB000D50C2B013C01A7019601C501B4010E948E
:100CC000D50C68A779A78AA79BA7A501940160E026
:100CD00070E088EC92E40E94D50C4B015C0110920C
:100CE0005B0110925C0110925D0110925E01109206
:100CF0005F011092600110926101109262014092B6
:100D00006301509264016092650170926601C09225
:100D10006701D0926801E0926901F0926A0188A5AA
:100D200099A5AAA5BBA580936B0190936C01A09394
:100D30006D01B0936E01C0926F01D0927001E0928C
:100D40007101F09272019C01AD01C301B2010E94D8
:100D5000690C609373017093740180937501909393
:100D60007601109277011092780110927901109219
:100D70007A0180927B0190927C01A0927D01B092D9
:100D80007E0110927F0110928001109281011092D9
:100D90008201A5019401C301B2010E94690C2B01DB
:100DA0003C01D701C601B0588CA79DA7AEA7BFA72D
:100DB0004092830150928401609285017092860175
:100DC0008093870190938801A0938901B0938A0151
:100DD000A501940168A579A58AA59BA50E94690C27
:100DE00060938B0170938C0180938D0190938E01A1
:100DF0008CA59DA5AEA5BFA580938F019093900172
:100E0000A0939101B0939201A301920168A579A5E5
:100E10008AA59BA50E94690C60939301709394012D
:100E200080939501909396011092970110929801EA
:100E30001092990110929A012BE5E22E21E0F22EF8
:100E400010E319A218A3CE0180960E94490284E201
:100E500091E00E944902D7014D915D916D917C9185
:100E600028E0CE0101960E9428031BA21AA21DA20F
:100E70001CA21FA21EA269E471E0CE0182960E940C
:100E8000C202BE016F5F7F4FCE0182960E94ED02CB
:100E90000E949E020E940901CE0182960E942003B8
:100EA000CE0101960E942003F7014481558166819D
:100EB000778128E0CE0101960E9428031BA21AA286
:100EC0001DA21CA21FA21EA267E371E0CE018296A2
:100ED0000E94C202BE016F5F7F4FCE0182960E94C8
:100EE000ED020E949E020E940901CE0182960E949C
:100EF0002003CE0101960E9420031F5FF8E0EF0E51
:100F0000F11C183309F09DCF1DA61CA62CA53DA5EC
:100F1000B901330F880B990B0E94140B2FE632E1B5
:100F200043E85BE30E94730B6B017C010BE511E06E
:100F3000312C212C3DAA2CAA1FAB0EABD8018D90D1
:100F40009D90AD90BC90A5019401C701B6010E948F
:100F5000470D87FD0BC0F8012085318542855385FB
:100F6000C701B6010E940D0B87FD0CC0FFEF2F1AC1
:100F70003F0A085F1F4F28E022163104D9F697E098
:100F8000292E312C0BE511E019A618A618AA19AACA
:100F90001AAA1BAA88A599A582159305E9F1D8017B
:100FA00014962D913D914D915C9117971C966D91E2
:100FB0007D918D919C911F970E94690C2B013C01A2
:100FC000F80120813181428153816085718582855C
:100FD00093850E94680C9B01AC01C301B2010E9481
:100FE000730B20E030E040E05FE30E94730B9B0155
:100FF000AC0168A979A98AA99BA90E94690C68AB70
:1010000079AB8AAB9BAB28A539A52F5F3F4F39A79A
:1010100028A7085F1F4FBECFA5019401C701B601E5
:101020000E94680C2B013C010CA91DA983E0000F54
:10103000111F8A95E1F70D591E4FAEA9BFA914964D
:10104000CD90DD90ED90FC901797A5019401F801EB
:1010500060817181828193810E94680C9B01AC0147
:10106000C301B2010E94D50C4B015C01A70196019E
:10107000D80114966D917D918D919C9117970E9446
:10108000680C9B01AC01C501B4010E94730BA70160
:1010900096010E94690CA70196010E94690CA301A8
:1010A00092010E94730B20E030E040E05FE30E9479
:1010B000730B28A939A94AA95BA90E94690CAB0145
:1010C000BC0126E0CE0101960E942803CE010196C4
:1010D0000E945602CE0101960E942003ECA5FDA5B8
:1010E0003196FDA7ECA764E070E080E090E00E94FC
:1010F000170228A539A52730310509F007CF00E0F0
:1011000010E001151105E9F30E944F018823C9F38E
:101110000E940000F6CFEBE9F1E01382128288EE24
:1011200093E0A0E0B0E084839583A683B78386E153
:1011300091E09183808385EC90E09587848784ECAF
:1011400090E09787868780EC90E0918B808B81EC94
:1011500090E0938B828B82EC90E0958B848B86EC75
:1011600090E0978B868B118E128E138E148E0895BD
:10117000EF920F931F93CF93DF93E80134E047FD85
:1011800034E1042E000C550B57FF03C051954195D7
:101190005109E32E022F242FAE010E94D608CE0162
:1011A000DF91CF911F910F91EF900895A9E0B0E0EA
:1011B000ECEDF8E00C94370C6A01F22EB02E102FF3
:1011C000FBE3AF2EA01608F41BE31F5F012F27E0FF
:1011D000AE014F5F5F4F0E94350ABC018981982F95
:1011E0009970913009F43FC09BE2E1FC04C09E2D50
:1011F0009170E0FC3AC05E2D5071E82FE87083FFDB
:1012000046C084E0911101C083E0EF2DE81B8F15EB
:1012100008F0E0E0D6018E2F20E2552351F199230A
:1012200029F0D6019C93C60101966C0196012D5FB1
:101230003F4FE2FE24C08EE4D6018C9391E41196D8
:101240009C93119712968C93D9018E2F90E2811165
:101250001BC0E20FF32FF11D10828EEF9FEF299636
:10126000ECE00C94530C9DE2C6CF90E2C4CF2D93DA
:1012700081508111FCCFCE0ED11CE0E0D0CF8EE6A4
:10128000D6018C9391E6DBCF9D938150E0CF482F20
:10129000447082FF3DC084E0911101C083E08F154E
:1012A00010F4EF2DE81BD6018E2F20E2552309F113
:1012B000992329F0D6019C93C60101966C019601F1
:1012C0002D5F3F4FE2FE1BC089E4D6018C938EE474
:1012D00011968C93119786E412968C93D9018E2FD8
:1012E00090E2882309F4B5CF9D938150FACF2D93D6
:1012F00081508111FCCFCE0ED11CE0E0D9CF89E620
:10130000D6018C938EE611968C93119786E6E4CFE6
:101310009B0177FF02C030E020E0A1E0B0E0911136
:1013200002C0B0E0A0E0F9013196AE0FBF1F8B2CD8
:10133000912CBB2009F461C05401EFEFAE1ABE0A34
:10134000AA0DBB1DFA161B0619F014F04F2D4A1BEF
:10135000511188C0E3FC59C07601A42FB0E2A1115D
:101360004FC0C40ED11C992309F45BC040E0D601E4
:101370001196F60190836D01552309F448C0012FA1
:10138000060F9A81582F507184FF03C0913309F4DE
:10139000015010160CF047C0093008F008E0EEE2EA
:1013A000FE2E5B01A01AB1088501919481949108E9
:1013B0002F3F320729F4D601FC92F60131966F01D6
:1013C0006217730794F1021713077CF5DB01A21B68
:1013D000B30BAA24A394B12CAC0EBD1EAA0DBB1D49
:1013E00011968C9121503109D60111962815390595
:1013F000F4F0F60180836D01DBCFB12CA12CA0CFDE
:10140000F701B1937F01A150AACF9111B0CFD601BE
:10141000942F50E302C05D9391509111FCCFC40E04
:10142000D11C40E0ACCF01E0BACF80E3DBCF621744
:10143000730731F4963388F4953311F4552369F02A
:10144000F6018083FD01842F90E2811108C0A40F72
:10145000B11D1C9290E080E002CF81E3F1CF919327
:101460008150F3CF911183CF8ACF283008F027E045
:101470003327DA01990F311D87FD916000966105D0
:10148000710539F432602E5F3D9330E32A95E1F720
:1014900008959F3F30F080387105610509F03C5F89
:1014A0003C5F3D93913008F08068911DDF93CF93AE
:1014B0001F930F93FF92EF92192F987F9695E92F24
:1014C00096959695E90FFF27EE53FF4F99273327FF
:1014D000EE24FF24A701E70105900894079428F45F
:1014E000360FE71EF81E491F511D660F771F881F14
:1014F000991F0694A1F70590079428F4E70EF81EAB
:10150000491F561FC11D770F881F991F661F06941C
:10151000A1F70590079428F4F80E491F561FC71F1E
:10152000D11D880F991F661F771F0694A1F705909C
:10153000079420F4490F561FC71FD81F990F661F25
:10154000771F881F0694A9F784911095177041F0B2
:10155000D695C79557954795F794E7941A95C1F78F
:10156000E8E6F0E0689415901591359165919591B4
:1015700005907FE27395E118F10A430B560BC90BF6
:10158000D009C0F7E10CF11E431F561FC91FD01D23
:101590007EF4703311F48A95E6CFE894015030F070
:1015A000080F0AF40027021708F4202F2395022FB2
:1015B0007A3328F079E37D932A95E9F710C07D937B
:1015C0002A9589F6069497956795379517951794F8
:1015D000E118F10A430B560BC90BD00998F023957B
:1015E0007E9173957A3308F070E37C932013B8F7FB
:1015F0007E9170617D9330F0839571E37D9370E30C
:101600002A95E1F71124EF90FF900F911F91CF9150
:10161000DF91992787FD909508950E944F0B08F45C
:1016200081E00895E89409C097FB3EF49095809579
:10163000709561957F4F8F4F9F4F9923A9F0F92F98
:1016400096E9BB279395F695879577956795B79516
:10165000F111F8CFFAF4BB0F11F460FF1BC06F5FFC
:101660007F4F8F4F9F4F16C0882311F096E911C00E
:10167000772321F09EE8872F762F05C0662371F02F
:1016800096E8862F70E060E02AF09A95660F771F43
:10169000881FDAF7880F9695879597F90895990F1F
:1016A0000008550FAA0BE0E8FEEF16161706E8072C
:1016B000F907C0F012161306E407F50798F0621B4D
:1016C000730B840B950B39F40A2661F0232B242B22
:1016D000252B21F408950A2609F4A140A6958FEF41
:1016E000811D811D08950E94860B0C94F70B0E94AA
:1016F000E90B38F00E94F00B20F0952311F00C94C8
:10170000E00B0C94E60B11240C942B0C0E94080C9B
:1017100070F3959FC1F3950F50E0551F629FF00144
:10172000729FBB27F00DB11D639FAA27F00DB11D5D
:10173000AA1F649F6627B00DA11D661F829F2227E6
:10174000B00DA11D621F739FB00DA11D621F839F6D
:10175000A00D611D221F749F3327A00D611D231F43
:10176000849F600D211D822F762F6A2F11249F5791
:1017700050409AF0F1F088234AF0EE0FFF1FBB1F94
:10178000661F771F881F91505040A9F79E3F510553
:1017900080F00C94E00B0C942B0C5F3FE4F3983E2C
:1017A000D4F3869577956795B795F795E7959F5FFD
:1017B000C1F7FE2B880F911D9695879597F908958F
:1017C00097F99F6780E870E060E008959FEF80ECF4
:1017D000089500240A941616170618060906089597
:1017E00000240A9412161306140605060895092EFD
:1017F0000394000C11F4882352F0BB0F40F4BF2B6C
:1018000011F460FF04C06F5F7F4F8F4F9F4F0895AB
:1018100057FD9058440F551F59F05F3F71F04795A1
:10182000880F97FB991F61F09F3F79F08795089586
:10183000121613061406551FF2CF4695F1DF08C0A5
:10184000161617061806991FF1CF869571056105C2
:1018500008940895E894BB2766277727CB0197F96A
:1018600008952F923F924F925F926F927F928F9244
:101870009F92AF92BF92CF92DF92EF92FF920F931F
:101880001F93CF93DF93CDB7DEB7CA1BDB0B0FB629
:10189000F894DEBF0FBECDBF09942A8839884888E6
:1018A0005F846E847D848C849B84AA84B984C8847C
:1018B000DF80EE80FD800C811B81AA81B981CE0F73
:1018C000D11D0FB6F894DEBF0FBECDBFED01089558
:1018D0005058BB27AA270E94800C0C94F70B0E943B
:1018E000E90B38F00E94F00B20F039F49F3F19F417
:1018F00026F40C94E60B0EF4E095E7FB0C94E00B59
:10190000E92F0E94080C58F3BA176207730784077F
:10191000950720F079F4A6F50C942A0C0EF4E095C6
:101920000B2EBA2FA02D0B01B90190010C01CA0199
:10193000A0011124FF27591B99F0593F50F4503E44
:1019400068F11A16F040A22F232F342F4427585F36
:10195000F3CF469537952795A795F0405395C9F74E
:101960007EF41F16BA0B620B730B840BBAF0915006
:10197000A1F0FF0FBB1F661F771F881FC2F70EC0A5
:10198000BA0F621F731F841F48F487957795679578
:10199000B795F7959E3F08F0B0CF9395880F08F064
:1019A0009927EE0F9795879508950E94E90C0C945E
:1019B000F70B0E94F00B58F00E94E90B40F029F45D
:1019C0005F3F29F00C94E00B51110C942B0C0C94FC
:1019D000E60B0E94080C68F39923B1F3552391F3A9
:1019E000951B550BBB27AA2762177307840738F08E
:1019F0009F5F5F4F220F331F441FAA1FA9F335D0EB
:101A00000E2E3AF0E0E832D091505040E695001C9E
:101A1000CAF72BD0FE2F29D0660F771F881FBB1F58
:101A2000261737074807AB07B0E809F0BB0B802D36
:101A3000BF01FF2793585F4F3AF09E3F510578F062
:101A40000C94E00B0C942B0C5F3FE4F3983ED4F322
:101A5000869577956795B795F7959F5FC9F7880F36
:101A6000911D9695879597F90895E1E0660F771F88
:101A7000881FBB1F621773078407BA0720F0621B19
:101A8000730B840BBA0BEE1F88F7E09508950E9444
:101A90004F0B08F48FEF089519F416F40C94E60B2D
:101AA0000C94920D0E94100CB8F39923C9F3B6F36D
:101AB0009F57550B87FF0E94A00D0024A0E640EA27
:101AC000900180585695979528F4805C660F771F93
:101AD000881F20F026173707480730F4621B730B66
:101AE000840B202931294A2BA69517940794202589
:101AF00031254A2758F7660F771F881F20F02617D1
:101B00003707480730F4620B730B840B200D311D2F
:101B1000411DA09581F7B901842F9158880F9695A2
:101B2000879508959F3F31F0915020F487957795E0
:101B30006795B795880F911D9695879597F90895A4
:101B400091505040660F771F881FD2F70895EE0F0F
:101B5000FF1F0590F491E02D09940F931F93CF93ED
:101B6000DF938230910510F482E090E0E0913A0238
:101B7000F0913B0230E020E0B0E0A0E0309799F433
:101B80002115310509F44AC0281B390B24303105D1
:101B9000D8F58A819B816115710589F1FB019383D9
:101BA0008283FE0111C04081518102811381481757
:101BB0005907E0F04817590799F4109761F0129609
:101BC0000C93129713961C933296CF01DF91CF910D
:101BD0001F910F91089500933A0210933B02F4CFA6
:101BE0002115310551F04217530738F0A901DB01E7
:101BF0009A01BD01DF01F801C1CFEF01F9CF909348
:101C00003B0280933A02CDCFFE01E20FF31F819396
:101C100091932250310939832883D7CF20913802FC
:101C200030913902232B41F420910E0130910F01A4
:101C3000309339022093380220910C0130910D012C
:101C40002115310541F42DB73EB740911001509157
:101C50001101241B350BE0913802F0913902E21793
:101C6000F307A0F42E1B3F0B2817390778F0AC01BF
:101C70004E5F5F4F2417350748F04E0F5F1F50939C
:101C8000390240933802819391939FCFF0E0E0E0D6
:101C90009CCFCF93DF930097E9F0FC01329713823A
:101CA0001282A0913A02B0913B02ED0130E020E0B7
:101CB0001097A1F420813181820F931F2091380267
:101CC000309139022817390709F061C0F0933902C1
:101CD000E0933802DF91CF910895EA01CE17DF0734
:101CE000E8F54A815B819E0141155105B1F7E90193
:101CF000FB83EA8349915991C40FD51FEC17FD0767
:101D000061F4808191810296840F951FE901998386
:101D10008883828193819B838A83F0E0E0E012963E
:101D20008D919C9113970097B9F52D913C91119746
:101D3000CD010296820F931F209138023091390213
:101D40002817390739F6309751F510923B02109257
:101D50003A02B0933902A0933802BCCFD383C28336
:101D600040815181840F951FC817D90761F44E5FD8
:101D70005F4F88819981480F591F518340838A8121
:101D80009B81938382832115310509F0B0CFF093B5
:101D90003B02E0933A029ECFFD01DC01C0CF1382EB
:101DA0001282D7CFB0E0A0E0E8EDFEE00C94330C57
:101DB0008C01009751F4CB010E94AD0D8C01C8013C
:101DC000CDB7DEB7E0E10C944F0CFC01E60FF71F36
:101DD0009C0122503109E217F30708F49DC0D90194
:101DE000CD91DC911197C617D70798F0C530D10572
:101DF00030F3CE0104978617970708F3C61BD70B5D
:101E00002297C193D1936D937C93CF010E94490E89
:101E1000D6CF5B01AC1ABD0A4C018C0E9D1EA09161
:101E20003A02B0913B02512C412CF12CE12C10973D
:101E300031F580913802909139028815990509F0A1
:101E40005CC04616570608F058C080910C0190916E
:101E50000D01009741F48DB79EB74091100150914C
:101E60001101841B950BE817F90708F055C0F09392
:101E70003902E0933802F90171836083A0CF8D911C
:101E80009C91119712966C90129713967C901397D1
:101E9000A815B90559F56C0142E0C40ED11CCA144D
:101EA000DB0420F1AC014A195B09DA01129615979F
:101EB00080F06282738251834083D9016D937C9359
:101EC000E114F10471F0D7011396FC93EE9312978D
:101ED00076CF22968C0F9D1FF90191838083F301A9
:101EE000EFCFF0933B02E0933A0269CF48165906D0
:101EF00008F42C017D01D3019ACFCB010E94AD0DD6
:101F00007C01009749F0AE01B8010E948F0FC80113
:101F10000E94490E870153CF10E000E050CFFB0133
:101F2000DC0102C001900D9241505040D8F7089555
:101F3000FB01DC0101900D920020E1F70895F89477
:101F4000FFCF000096420000A04100004842000080
:101F50003C028000000000008501DC001201D2017B
:101F60004301210135010D0A0020202020200076A8
:101F7000656C6F636974793A00616363656C65725F
:101F80006174653A006A65726B3A0074696D696ED6
:041F9000673A0000AC
:107E0000112484B714BE81FFF0D085E080938100F7
:107E100082E08093C00088E18093C10086E0809377
:107E2000C20080E18093C4008EE0C9D0259A86E02C
:107E300020E33CEF91E0309385002093840096BBD3
:107E4000B09BFECF1D9AA8958150A9F7CC24DD24C4
:107E500088248394B5E0AB2EA1E19A2EF3E0BF2EE7
:107E6000A2D0813461F49FD0082FAFD0023811F036
:107E7000013811F484E001C083E08DD089C08234E0
:107E800011F484E103C0853419F485E0A6D080C0E4
:107E9000853579F488D0E82EFF2485D0082F10E0AE
:107EA000102F00270E291F29000F111F8ED06801E7
:107EB0006FC0863521F484E090D080E0DECF843638
:107EC00009F040C070D06FD0082F6DD080E0C81688
:107ED00080E7D80618F4F601B7BEE895C0E0D1E017
:107EE00062D089930C17E1F7F0E0CF16F0E7DF06D8
:107EF00018F0F601B7BEE89568D007B600FCFDCFD4
:107F0000A601A0E0B1E02C9130E011968C91119780
:107F100090E0982F8827822B932B1296FA010C0160
:107F200087BEE89511244E5F5F4FF1E0A038BF0790
:107F300051F7F601A7BEE89507B600FCFDCF97BE46
:107F4000E89526C08437B1F42ED02DD0F82E2BD052
:107F50003CD0F601EF2C8F010F5F1F4F84911BD097
:107F6000EA94F801C1F70894C11CD11CFA94CF0C13
:107F7000D11C0EC0853739F428D08EE10CD085E9AC
:107F80000AD08FE07ACF813511F488E018D01DD067
:107F900080E101D065CF982F8091C00085FFFCCF94
:107FA0009093C60008958091C00087FFFCCF809118
:107FB000C00084FD01C0A8958091C6000895E0E648
:107FC000F0E098E1908380830895EDDF803219F02E
:107FD00088E0F5DFFFCF84E1DECF1F93182FE3DFCA
:107FE0001150E9F7F2DF1F91089580E0E8DFEE27F6
:047FF000FF270994CA
:027FFE00040479
:00000001FF
